:1000000045C0000060C000005EC000005CC0000091
:100010005AC0000058C0000056C0000054C0000084
:1000200052C0000050C000004EC000004CC0000094
:100030004AC000001EC1000046C0000044C00000CD
:1000400042C0000040C000003EC000003CC00000B4
:100050003AC0000038C0000036C0000034C00000C4
:1000600032C0000030C000002EC000002CC00000D4
:100070002AC0000028C0000026C0000024C00000E4
:1000800022C0000020C000001EC0000011241FBEBE
:10009000CFEFD0E4DEBFCDBF11E0A0E0B1E0E6E9F4
:1000A000FAE000E00BBF02C007900D92AC36B1073A
:1000B000D9F721E0ACE6B1E001C01D92A13AB20748
:1000C000E1F78ED3E6C49CCF109292018130910566
:1000D00029F18230910591F1892B81F08FE780938E
:1000E0000C018091990190919A01892BB9F180912D
:1000F00096018093920180E090E03BC08FED809369
:100100000C018091990190919A01892B51F1809174
:1001100095018093920181E090E02BC087EF80935E
:100120000C018091990190919A01892BE9F08091BD
:1001300094018093920182E090E01BC08DEF809348
:100140000C018091990190919A01892B81F0809105
:1001500093018093920183E090E00BC080E090E0F7
:1001600008C081E090E005C082E090E002C083E03A
:1001700090E02091920121602093920122B9209178
:100180000C0128B90895892B09F04CC08091900189
:10019000909191018530910530F4019690939101F1
:1001A000809390013FC080919701909198018F308A
:1001B000910508F4019690939801809397012091FE
:1001C00096012695209396013091950136953093AE
:1001D000950140919401469540939401509193016B
:1001E000569550939301FC01E55AFE4F808180386B
:1001F00021F420682093960111C0803221F43068E8
:10020000309395010BC0883021F4406840939401ED
:1002100005C0823019F450685093930110929101F7
:100220001092900180E090E008958BE0809381002F
:100230008DE790E0909389008093880082E080931E
:100240006F00109285001092840080910D019091B2
:100250000E01A0910F01B091100180939C01909329
:100260009D01A0939E01B0939F018FB780688FBFBF
:1002700008951F920F920FB60F9211248F939F93A0
:10028000AF93BF9380919C0190919D01A0919E019D
:10029000B0919F010197A109B10980939C019093AE
:1002A0009D01A0939E01B0939F01892B8A2B8B2BDC
:1002B00099F481E08093A00180910D0190910E014D
:1002C000A0910F01B091100180939C0190939D012A
:1002D000A0939E01B0939F01BF91AF919F918F9189
:1002E0000F900FBE0F901F901895181619069CF4CA
:1002F00040E050E077E063E00BC00000215031099E
:1003000021153105D1F74F5F5F4F4817590719F095
:10031000272F362FF2CF08955E9885B95F9A000097
:100320005F9882E090E0E1CF089581E0F5CF0895F5
:10033000813118F48158F0CF08958155EDCF08959B
:1003400084E690E0D2DF88E3E7DF86E0E5DF8FE058
:10035000E3DF81E0E1DF8AE090E0C7CF08955E9AB5
:1003600085B95F9A00005F9881E090E0BECF089564
:100370001F93CF93DF93FB019081992359F0EB01F9
:1003800011E0180FD5DF8991EADF8881882311F009
:10039000812FF6CFDF91CF911F91089580E4BCDFCC
:1003A00080E0DDDF8FE0DBDF8FE0D9DF89E0D7DFC2
:1003B00089E0D5DF8BE1D3DF8BE1D1DF80E0CFDFD8
:1003C0008AE090E092DF80E0CADF8AE090E08DDF93
:1003D00088E4A2DF80E0C3DF8EE0C1DF8AE0BFDF18
:1003E0008EE0BDDF84E0BBDF8EE0B9DF84E0B7DF05
:1003F0008AE0B5DF8AE090E078DF81E0B0DF8AE074
:1004000090E073DF80E588DF80E0A9DF8EE0A7DF82
:100410008AE0A5DF8FE0A3DF86E0A1DF8CE09FDF2D
:1004200084E19DDF8AE09BDF8AE090E05EDF82E08E
:1004300096DF8AE090E059DF88E56EDF80E08FDFAD
:100440008EE08DDF8AE08BDF8EE189DF8CE087DF55
:1004500086E085DF85E083DF8AE081DF8AE090E067
:1004600044DF83E07CDF8AE090E03FDF80E654DF1A
:1004700080E075DF82E073DF86E071DF8EE06FDFA2
:1004800086E06DDF82E06BDF80E069DF80E067DFC0
:100490008AE090E02ADF84E062DF8AE090E025DFF6
:1004A00088E63ADF80E05BDF80E059DF84E057DFF9
:1004B00084E055DF8EE053DF8EE051DF8FE14FDFC8
:1004C00080E04DDF8AE090E010DF85E048DF8AE0E1
:1004D00090E00BDF80E720DF80E041DF8FE13FDF4E
:1004E0008EE03DDF8EE03BDF84E039DF84E037DF04
:1004F00080E035DF80E033DF8AE090E0F6DE86E002
:100500002EDF8AE090E0F1DE88E706DF80E027DF7B
:1005100088E025DF8CE023DF8EE021DF8FE01FDF26
:100520008EE01DDF8CE01BDF88E019DF8AE090E0C1
:10053000DCDE87E014DF8AE090E0D7CE08958130DA
:1005400081F0E1ECF0E0808188618083E2ECF0E012
:1005500080818660808383E38093C4001092C5000D
:100560000895E9ECF0E0808188618083EAECF0E0B6
:1005700080818660808383E38093CC001092CD00DD
:100580000895813029F48091C800882384F008956B
:100590008091C0008823ACF4A6ECB0E0E0ECF0E081
:1005A0008C9180938F0180818823D4F30895AEECE1
:1005B000B0E0E8ECF0E08C9180938F01808188239B
:1005C000D4F30895613041F0E0ECF0E0908195FFC4
:1005D000FDCF8093C6000895E8ECF0E0908195FF90
:1005E000FDCF8093CE000895813041F0E0ECF0E043
:1005F00080818823ECF78091C6000895E8ECF0E054
:1006000080818823ECF78091CE0008950F931F938B
:10061000CF93DF93EC0110929B018091C00088235F
:1006200024F480E0E1DF80939B018091C00085FF8E
:1006300004C060E080919B01C5DFC130D105B1F0FD
:100640001CF4CD2B49F0C1C0C230D10509F4AAC0B9
:10065000239709F4AEC0B9C091E080E020919B01DE
:10066000203209F090E0C92FD82FB4C080919B01AF
:100670008F7D833501F580910001909101010197F3
:1006800039F481E190E090930101809300010CC066
:1006900080910201909103018330910508F4019645
:1006A000909303018093020181E090E090938E018A
:1006B00080938D0129C0873539F580910001909193
:1006C0000101419771F480910201909103018D7FA6
:1006D000019739F481E090E090930101809300014B
:1006E0000CC080910201909103018230910508F0C5
:1006F0000197909303018093020181E090E0909331
:100700008E0180938D0106C080918D0190918E01A4
:10071000892B31F10ADE0091020110910301F801E9
:10072000EE0FFF1FEE5FFE4F6081718182E020DEE1
:1007300080E1FEDD85E013DEF801EE0FFF1FEC5FC8
:10074000FE4F6081718182E113DE80E2F1DD86E09F
:1007500006DE80910001ECDD87E001DE81E2E8DD6C
:1007600080919B018032C9F4809102019091030134
:10077000019799F08091000190910101019769F032
:1007800081E090E090939A018093990110928E01FC
:1007900010928D01C2E0D0E01DC010928E01109227
:1007A0008D0118C080919701909198010F9780F466
:1007B00011C0109298011092970110929A01109214
:1007C0009901B3DDC1E0D0E005C0C0E0D0E002C0D7
:1007D000C3E0D0E0CE01DF91CF911F910F9108953A
:1007E000CF93DF9300D000D000D0CDB7DEB78FEF2E
:1007F00081B912B884B915B887B918B880EF8AB929
:100800008FE08BB90F2EF4EFFF2EF02DEE24E39442
:10081000D12CC12C51E040E030E020E0652F742F56
:10082000832F922F2F2D3E2D4D2D5C2D10D1611534
:1008300071058105910549F05F2D4E2D3D2D2C2D23
:10084000F62EE72ED82EC92EE9CF0F2EF2E36F2E0B
:10085000F02D712C00E010E06F2D7E2D8D2D9C2D44
:10086000262D372D402F512FF2D0611571058105AE
:10087000910549F0F62CE72CD02EC12E662E772E4E
:10088000082F192FE9CF61E070E080E090E0262D7D
:10089000372D402F512FDBD049015A0164EF71E011
:1008A00080E090E0262D372D402F512FD0D06901C8
:1008B0007A0162E370E080E090E0262D372D402F32
:1008C000512FC5D086E0E1E1F1E0DE011196019003
:1008D0000D928A95E1F76FEF609382018092830118
:1008E00090928401A0928501B09286018092870146
:1008F00090928801A0928901B0928A0184E690E0EA
:1009000090938C0180938B0160937701C092780162
:10091000D0927901E0927A01F0927B01C0927C0141
:10092000D0927D01E0927E01F0927F0186E093E01B
:10093000909381018093800160936C0120936D01FD
:1009400030936E0140936F015093700120937101B9
:1009500030937201409373015093740183EC90E0E3
:10096000909376018093750160920D0170920E0153
:1009700000930F011093100160929C0170929D01F1
:1009800000939E0110939F0150DCDADC07DD67E1E4
:1009900071E084E0EDDC83E0CBDC80E0E0DC8EE045
:1009A000C7DC80E0DCDC80E0C3DC8FE1C1DC80E020
:1009B000C6DD80E0E6DD00E010E0C12CD12C3BC0BC
:1009C000F801EE0FFF1F81E090E08C0F9D1FE80FF4
:1009D000F91FE080F180D70115964D915D916D91E1
:1009E0007C91189711968D919D910D90BC91A02DA1
:1009F000481759076A077B0781F4F7018081018452
:100A0000F285E02D992787FD90950995D7018C9364
:100A1000F7011582168217821086F701858196816B
:100A2000A781B0850196A11DB11D85839683A783FB
:100A3000B0870F5F1F4F0330110510F28091A001A6
:100A40008823E1F31092A0010C2D1D2DF4CFA1E21B
:100A50001A2EAA1BBB1BFD010DC0AA1FBB1FEE1F38
:100A6000FF1FA217B307E407F50720F0A21BB30B83
:100A7000E40BF50B661F771F881F991F1A9469F7FF
:100A800060957095809590959B01AC01BD01CF015B
:060A90000895F894FFCF69
:100A960001000100320138013F014E0155010000FD
:100AA60000820177016C01203842495420444452A7
:100AB60020202020202050726573732053746172A9
:100AC6007400204D454E5500205361696B6100202E
:100AD60057696E67206F66205069616E6F002055FA
:100AE600746F696F737068657265000000008080BE
:0C0AF600020220082008028020020000FC
:00000001FF
